:020000040000FA
:100000000C9458000C9480000C9480000C94800098
:100010000C9480000C9480000C9480000C94800060
:100020000C9480000C9480000C9480000C94800050
:100030000C9480000C9480000C9480000C94800040
:100040000C9487030C9480000C9480000C94800026
:100050000C9480000C9480000C9480000C94800020
:100060000C94D1030C9480000000000025002800AF
:100070002B00040404040404040402020202020229
:10008000030303030303010204081020408001025C
:1000900004081020010204081020000000080002DB
:1000A0000100000304070000000000000000EC0451
:1000B00011241FBECFEFD8E0DEBFCDBF11E0A0E01E
:1000C000B1E0E4E2FBE002C005900D92AA35B10771
:1000D000D9F722E0AAE5B1E001C01D92A031B20734
:1000E000E1F710E0C8E5D0E004C02197FE010E94CE
:1000F0008A05C735D107C9F70E940C050C949005F5
:100100000C94000090E0FC01E656FF4F2491FC01A6
:10011000EA57FF4F3491FC01EE58FF4FE491EE2374
:10012000C9F0222339F0233001F1A8F4213019F16C
:10013000223029F1F0E0EE0FFF1FE859FF4FA591A3
:10014000B4918FB7F894EC91611126C030953E239D
:100150003C938FBF08952730A9F02830C9F0243090
:1001600049F7809180008F7D03C0809180008F7758
:1001700080938000DFCF84B58F7784BDDBCF84B5DB
:100180008F7DFBCF8091B0008F778093B000D2CF6E
:100190008091B0008F7DF9CF3E2BDACF3FB7F89436
:1001A0008091F4019091F501A091F601B091F701D1
:1001B00026B5A89B05C02F3F19F00196A11DB11DC2
:1001C0003FBFBA2FA92F982F8827BC01CD01620FFE
:1001D000711D811D911D42E0660F771F881F991FB9
:1001E0004A95D1F70895AF92BF92CF92DF92EF92E6
:1001F000FF920F931F93CF93DF936C017B018B01D1
:10020000040F151FEB015E01AE18BF08C017D10720
:1002100059F06991D601ED91FC910190F081E02DAA
:10022000C6010995892B79F7C501DF91CF911F91FF
:100230000F91FF90EF90DF90CF90BF90AF90089517
:100240001F93CF93DF93C1E0C0938401882399F17A
:10025000D091B8001091BA008091BC008A7B809345
:10026000BC0060E082E10E94820060E083E10E94C5
:1002700082001092C901C093CB011092CA0161E0C3
:1002800082E10E94820061E083E10E94820080910D
:10029000B9008E7F8093B9008091B9008D7F8093E3
:1002A000B90088E48093B80085E48093BC00109383
:1002B000BA00D093B800DF91CF911F91089520919B
:1002C000A501260F3327331F21323105ECF420918D
:1002D000C901FC0190E080E0243069F082E00895DB
:1002E000A091A5012191AC014B575E4FA40FB52FF2
:1002F000B11D2C930196861798F38091A501680F84
:100300006093A50180E0089581E0089508958FEF3E
:100310009FEF08958FEF9FEF089580917E0190E009
:100320009195819591090895CF92DF92EF92FF9276
:100330000F931F93CF93DF937C01CB018A01209110
:100340007D01222389F0EB016B01C40ED51ECC1573
:10035000DD0569F06991D701ED91FC910190F08183
:10036000E02DC7010995F3CF642F0E945F01C801FA
:10037000DF91CF911F910F91FF90EF90DF90CF9081
:100380000895CF93DF931F92CDB7DEB76983209195
:100390007D012223F9F020917C01203258F021E0E8
:1003A00030E0FC013383228390E080E00F90DF9106
:1003B000CF91089580917B01E82FF0E0E55AFE4F40
:1003C000998190838F5F80937B0180937C0181E092
:1003D00090E0ECCF61E0CE0101960E945F01F7CF83
:1003E000CF92DF92EF92FF920F931F93CF93DF9301
:1003F000FC01C48121E020937D01C0935A01109239
:100400007B0110927C018385682B88EF91E00E942C
:10041000C101D0917C01D13208F092C00E94CE007F
:100420006B017C018091C901811165C082E08093DC
:10043000C90181E08093CB018FEF8093C8011092B6
:10044000ED01D093EC01ABE5B1E0ECECF1E080E044
:10045000D81385C01092EE018091EE01CC0FC82B0D
:10046000C093EE018091CA01813009F07CC01092E6
:10047000CA010E94CE006B017C018091EE01809345
:10048000BB008091800190918101A0918201B09187
:100490008301892B8A2B8B2B99F00E94CE0000912F
:1004A00080011091810120918201309183016C19AA
:1004B0007D098E099F090617170728073907E0F1FC
:1004C0008091BC0083FDD9CF85EC8093BC000E9455
:1004D000CE006B017C018091C901823009F445C0D6
:1004E0008091C8018F3F61F18091C801803241F154
:1004F0008091C80125C08091800190918101A091D7
:100500008201B0918301892B8A2B8B2B09F48ACF2E
:100510000E94CE0000918001109181012091820102
:10052000309183016C197D098E099F090617170701
:100530002807390708F076CF80917F010E942001BB
:1005400010927B0110927C0110927D01DF91CF917E
:100550001F910F91FF90EF90DF90CF9008959D91A4
:1005600091938F5F75CF85EEB0CF80918001909190
:100570008101A0918201B0918301892B8A2B8B2B61
:1005800009F4A9CF0E94CE00009180011091810151
:1005900020918201309183016C197D098E099F0998
:1005A000061717072807390708F095CFC5CF089514
:1005B00090E080E0089585ED8093BC0080918001FB
:1005C00090918101A0918201B09183010796A11DB4
:1005D000B11D23E0B695A795979587952A95D1F7F4
:1005E0002091BC0024FD03C01092C90108954091E0
:1005F0008001509181016091820170918301452BAE
:10060000462B472B69F30097A105B10541F02AE27B
:100610002A95F1F700C00197A109B109E1CF8091B6
:100620007F010C9420010F931F93CF938C01C62F51
:1006300064600E94F0016C2F6B7FC8010E94F00182
:1006400083EC90E00197F1F7CF911F910F910895FE
:10065000FF920F931F93CF93DF938C01D62FC42F5C
:10066000862F807FF82EF42A6F2DC8010E94F0019A
:100670006F2DC8010E94130380E1D89FB00111249F
:10068000C62B6C2FC8010E94F0016C2FC801DF91AE
:10069000CF911F910F91FF900C941303CF93DF9391
:1006A000CDB7DEB728970FB6F894DEBF0FBECDBF2B
:1006B00098E0E0E0F1E0DE01119601900D929A954C
:1006C000E1F790910C02961708F46FEF262F30E0B7
:1006D000220F331F41E050E04C0F5D1F240F351FE8
:1006E000F9016081680F606840E084E092E028963C
:1006F0000FB6F894DEBF0FBECDBFDF91CF910C9443
:10070000280341E00E94280390E080E008951F92B2
:100710000F920FB60F9211242F933F938F939F93B5
:10072000AF93BF938091F0019091F101A091F201FC
:10073000B091F3013091EF0123E0230F2D3758F5ED
:100740000196A11DB11D2093EF018093F0019093BC
:10075000F101A093F201B093F3018091F401909123
:10076000F501A091F601B091F7010196A11DB11D0F
:100770008093F4019093F501A093F601B093F701F3
:10078000BF91AF919F918F913F912F910F900FBE8D
:100790000F901F90189526E8230F0296A11DB11DFA
:1007A000D2CF1F920F920FB60F9211242F933F9327
:1007B0004F935F936F937F938F939F93AF93BF9369
:1007C000EF93FF938091B900887F803609F44AC087
:1007D000F0F5883209F4A5C018F5803109F499C004
:1007E000B8F4882309F4F5C0883009F492C0FF9169
:1007F000EF91BF91AF919F918F917F916F915F9199
:100800004F913F912F910F900FBE0F901F90189511
:10081000883109F486C0803251F78093C80114C032
:10082000803409F49BC040F48033B9F38833F9F67F
:100830008093C80185ECAEC0803509F483C088354B
:1008400009F494C0883499F60E94DB02D0CF88392D
:1008500009F48AC038F5883729F050F4883611F049
:10086000803729F683E08093C9011092C70155C0F3
:10087000883809F479C0803919F0803809F0B7CF89
:100880008091C701803208F06FC0E091C70181E01C
:100890008E0F8093C7018091BB00F0E0E955FE4FB9
:1008A00080833BC0803B39F0D0F4803A09F477C0B4
:1008B000883A09F09CCF84E08093C9011092A60188
:1008C0001092A501F0E0E0E009958091A501811169
:1008D0000FC081E08093A5011092850109C0803C82
:1008E00009F4A8CF883C09F4A5CF883B09F07FCF55
:1008F000E091A60181E08E0F8093A601F0E0EB5716
:10090000FE4F80818093BB009091A6018091A5014C
:1009100029C08091EE018093BB0085EC8093BC00E0
:1009200066CF9091ED018091EC01981758F5E09118
:10093000ED0181E08E0F8093ED01F0E0E453FE4F76
:100940008081E9CFE091ED0181E08E0F8093ED0190
:100950008091BB00F0E0E453FE4F80839091ED0165
:100960008091EC019817C8F285E8D8CFE091ED01AD
:1009700081E08E0F8093ED018091BB00F0E0E453A5
:10098000FE4F80838091CB0181115ECF81E0809307
:10099000CA0184EA8093BC001092C90128CF85EC7B
:1009A0008093BC001092C9018091C701803230F45D
:1009B000E091C701F0E0E955FE4F10826091C70158
:1009C00070E087EA91E0F0E0E0E009951092C7015D
:1009D0000ECF1092C80138CFE8EFF1E013821282F7
:1009E00088EE93E0A0E0B0E084839583A683B7838C
:1009F0008CE091E091838083E4E0F2E01382128244
:100A00008EE191E09183808387E2848380E1818716
:100A100082E0828713860895789484B5826084BDCD
:100A200084B5816084BD85B5826085BD85B58160F2
:100A300085BD80916E00816080936E001092810070
:100A4000809181008260809381008091810081602B
:100A500080938100809180008160809380008091EC
:100A6000B10084608093B1008091B0008160809378
:100A7000B00080917A00846080937A0080917A003F
:100A8000826080937A0080917A00816080937A00FE
:100A900080917A00806880937A001092C10088E08B
:100AA00080930F0260E084E092E00E94F0014FE04A
:100AB00050E066E271E084E092E00E94F30061E0C1
:100AC00080E00E944E034FE050E066E371E084E076
:100AD00092E00E94F300C0E0D0E060E082E00E947B
:100AE0004E034AE050E066E471E084E092E00E9448
:100AF000F30061E080E00E944E0347E050E061E5D2
:100B000071E084E092E00E94F300209731F30E94AC
:100B10000000E3CFEE0FFF1F0590F491E02D099444
:100B2000F894FFCF000040001400540000000000C3
:100B3000C1019401D80286018D018A01870100005C
:100B400000008103F300D802D702204469656E20BB
:100B50005475204E53484F5020002058696E204B4A
:100B6000696E68204368616F200077656C636F6D04
:0E0B70006520746F0061726475696E6F00001D
:107E0000112484B714BE81FFF0D085E080938100F7
:107E100082E08093C00088E18093C10086E0809377
:107E2000C20080E18093C4008EE0C9D0259A86E02C
:107E300020E33CEF91E0309385002093840096BBD3
:107E4000B09BFECF1D9AA8958150A9F7CC24DD24C4
:107E500088248394B5E0AB2EA1E19A2EF3E0BF2EE7
:107E6000A2D0813461F49FD0082FAFD0023811F036
:107E7000013811F484E001C083E08DD089C08234E0
:107E800011F484E103C0853419F485E0A6D080C0E4
:107E9000853579F488D0E82EFF2485D0082F10E0AE
:107EA000102F00270E291F29000F111F8ED06801E7
:107EB0006FC0863521F484E090D080E0DECF843638
:107EC00009F040C070D06FD0082F6DD080E0C81688
:107ED00080E7D80618F4F601B7BEE895C0E0D1E017
:107EE00062D089930C17E1F7F0E0CF16F0E7DF06D8
:107EF00018F0F601B7BEE89568D007B600FCFDCFD4
:107F0000A601A0E0B1E02C9130E011968C91119780
:107F100090E0982F8827822B932B1296FA010C0160
:107F200087BEE89511244E5F5F4FF1E0A038BF0790
:107F300051F7F601A7BEE89507B600FCFDCF97BE46
:107F4000E89526C08437B1F42ED02DD0F82E2BD052
:107F50003CD0F601EF2C8F010F5F1F4F84911BD097
:107F6000EA94F801C1F70894C11CD11CFA94CF0C13
:107F7000D11C0EC0853739F428D08EE10CD085E9AC
:107F80000AD08FE07ACF813511F488E018D01DD067
:107F900080E101D065CF982F8091C00085FFFCCF94
:107FA0009093C60008958091C00087FFFCCF809118
:107FB000C00084FD01C0A8958091C6000895E0E648
:107FC000F0E098E1908380830895EDDF803219F02E
:107FD00088E0F5DFFFCF84E1DECF1F93182FE3DFCA
:107FE0001150E9F7F2DF1F91089580E0E8DFEE27F6
:047FF000FF270994CA
:027FFE00040479
:00000001FF
